{
  "_format": "hh-sol-artifact-1",
  "contractName": "RegistroVehicular",
  "sourceName": "src/Backend/contracts/RegistroVehicular.sol",
  "abi": [
    {
      "inputs": [],
      "stateMutability": "nonpayable",
      "type": "constructor"
    },
    {
      "anonymous": false,
      "inputs": [
        {
          "indexed": false,
          "internalType": "string",
          "name": "matricula",
          "type": "string"
        },
        {
          "indexed": false,
          "internalType": "uint256",
          "name": "timeStamp",
          "type": "uint256"
        },
        {
          "components": [
            {
              "internalType": "string",
              "name": "nombre",
              "type": "string"
            },
            {
              "internalType": "string",
              "name": "emision",
              "type": "string"
            },
            {
              "internalType": "string",
              "name": "modeloVehiculo",
              "type": "string"
            },
            {
              "internalType": "string",
              "name": "matricula",
              "type": "string"
            },
            {
              "internalType": "bool",
              "name": "vigencia",
              "type": "bool"
            },
            {
              "components": [
                {
                  "internalType": "string",
                  "name": "nombre",
                  "type": "string"
                },
                {
                  "internalType": "string",
                  "name": "fecha",
                  "type": "string"
                }
              ],
              "internalType": "struct RegistroVehicular.Infracciones[]",
              "name": "infracciones",
              "type": "tuple[]"
            }
          ],
          "indexed": false,
          "internalType": "struct RegistroVehicular.InfoMatricula",
          "name": "info",
          "type": "tuple"
        }
      ],
      "name": "NewMatricula",
      "type": "event"
    },
    {
      "anonymous": false,
      "inputs": [
        {
          "indexed": true,
          "internalType": "address",
          "name": "previousOwner",
          "type": "address"
        },
        {
          "indexed": true,
          "internalType": "address",
          "name": "newOwner",
          "type": "address"
        }
      ],
      "name": "OwnershipTransferred",
      "type": "event"
    },
    {
      "anonymous": false,
      "inputs": [
        {
          "indexed": false,
          "internalType": "string",
          "name": "message",
          "type": "string"
        },
        {
          "indexed": false,
          "internalType": "address",
          "name": "newPersonal",
          "type": "address"
        }
      ],
      "name": "PersonalAgregado",
      "type": "event"
    },
    {
      "anonymous": false,
      "inputs": [
        {
          "indexed": false,
          "internalType": "string",
          "name": "matricula",
          "type": "string"
        },
        {
          "indexed": false,
          "internalType": "uint256",
          "name": "timeStamp",
          "type": "uint256"
        },
        {
          "components": [
            {
              "internalType": "string",
              "name": "nombre",
              "type": "string"
            },
            {
              "internalType": "string",
              "name": "emision",
              "type": "string"
            },
            {
              "internalType": "string",
              "name": "modeloVehiculo",
              "type": "string"
            },
            {
              "internalType": "string",
              "name": "matricula",
              "type": "string"
            },
            {
              "internalType": "bool",
              "name": "vigencia",
              "type": "bool"
            },
            {
              "components": [
                {
                  "internalType": "string",
                  "name": "nombre",
                  "type": "string"
                },
                {
                  "internalType": "string",
                  "name": "fecha",
                  "type": "string"
                }
              ],
              "internalType": "struct RegistroVehicular.Infracciones[]",
              "name": "infracciones",
              "type": "tuple[]"
            }
          ],
          "indexed": false,
          "internalType": "struct RegistroVehicular.InfoMatricula",
          "name": "info",
          "type": "tuple"
        }
      ],
      "name": "UpdateMatricula",
      "type": "event"
    },
    {
      "inputs": [
        {
          "internalType": "string",
          "name": "_nombre",
          "type": "string"
        },
        {
          "internalType": "string",
          "name": "_emision",
          "type": "string"
        },
        {
          "internalType": "string",
          "name": "_modeloVehiculo",
          "type": "string"
        },
        {
          "internalType": "string",
          "name": "_matricula",
          "type": "string"
        }
      ],
      "name": "addVehiculo",
      "outputs": [],
      "stateMutability": "nonpayable",
      "type": "function"
    },
    {
      "inputs": [
        {
          "internalType": "address",
          "name": "newPersonal",
          "type": "address"
        }
      ],
      "name": "agregarPersonal",
      "outputs": [],
      "stateMutability": "nonpayable",
      "type": "function"
    },
    {
      "inputs": [
        {
          "internalType": "address",
          "name": "",
          "type": "address"
        }
      ],
      "name": "autorizados",
      "outputs": [
        {
          "internalType": "bool",
          "name": "",
          "type": "bool"
        }
      ],
      "stateMutability": "view",
      "type": "function"
    },
    {
      "inputs": [
        {
          "components": [
            {
              "internalType": "string",
              "name": "nombre",
              "type": "string"
            },
            {
              "internalType": "string",
              "name": "emision",
              "type": "string"
            },
            {
              "internalType": "string",
              "name": "modeloVehiculo",
              "type": "string"
            },
            {
              "internalType": "string",
              "name": "matricula",
              "type": "string"
            },
            {
              "internalType": "bool",
              "name": "vigencia",
              "type": "bool"
            },
            {
              "components": [
                {
                  "internalType": "string",
                  "name": "nombre",
                  "type": "string"
                },
                {
                  "internalType": "string",
                  "name": "fecha",
                  "type": "string"
                }
              ],
              "internalType": "struct RegistroVehicular.Infracciones[]",
              "name": "infracciones",
              "type": "tuple[]"
            }
          ],
          "internalType": "struct RegistroVehicular.InfoMatricula",
          "name": "_infoMatricula",
          "type": "tuple"
        },
        {
          "internalType": "bool",
          "name": "_vigencia",
          "type": "bool"
        },
        {
          "components": [
            {
              "internalType": "string",
              "name": "nombre",
              "type": "string"
            },
            {
              "internalType": "string",
              "name": "fecha",
              "type": "string"
            }
          ],
          "internalType": "struct RegistroVehicular.Infracciones[]",
          "name": "_infracciones",
          "type": "tuple[]"
        }
      ],
      "name": "editInfo",
      "outputs": [],
      "stateMutability": "nonpayable",
      "type": "function"
    },
    {
      "inputs": [],
      "name": "owner",
      "outputs": [
        {
          "internalType": "address",
          "name": "",
          "type": "address"
        }
      ],
      "stateMutability": "view",
      "type": "function"
    },
    {
      "inputs": [],
      "name": "renounceOwnership",
      "outputs": [],
      "stateMutability": "nonpayable",
      "type": "function"
    },
    {
      "inputs": [
        {
          "internalType": "address",
          "name": "newOwner",
          "type": "address"
        }
      ],
      "name": "transferOwnership",
      "outputs": [],
      "stateMutability": "nonpayable",
      "type": "function"
    }
  ],
  "bytecode": "0x608060405234801561001057600080fd5b5061002d61002261008060201b60201c565b61008860201b60201c565b61003b61014c60201b60201c565b600160006101000a81548173ffffffffffffffffffffffffffffffffffffffff021916908373ffffffffffffffffffffffffffffffffffffffff160217905550610175565b600033905090565b60008060009054906101000a900473ffffffffffffffffffffffffffffffffffffffff169050816000806101000a81548173ffffffffffffffffffffffffffffffffffffffff021916908373ffffffffffffffffffffffffffffffffffffffff1602179055508173ffffffffffffffffffffffffffffffffffffffff168173ffffffffffffffffffffffffffffffffffffffff167f8be0079c531659141344cd1fd0a4f28419497f9722a3daafe3b4186f6b6457e060405160405180910390a35050565b60008060009054906101000a900473ffffffffffffffffffffffffffffffffffffffff16905090565b6115b7806101846000396000f3fe608060405234801561001057600080fd5b506004361061007d5760003560e01c80638da5cb5b1161005b5780638da5cb5b146100d8578063bf9610be146100f6578063f2fde38b14610112578063f91b2fa41461012e5761007d565b80633d91f7b214610082578063715018a61461009e5780638c14c670146100a8575b600080fd5b61009c60048036038101906100979190610a3c565b61014a565b005b6100a66102c6565b005b6100c260048036038101906100bd9190610b71565b6102da565b6040516100cf9190610bb9565b60405180910390f35b6100e06102fa565b6040516100ed9190610be3565b60405180910390f35b610110600480360381019061010b9190610ece565b610323565b005b61012c60048036038101906101279190610b71565b610628565b005b61014860048036038101906101439190610b71565b6106ac565b005b3360011515600260008373ffffffffffffffffffffffffffffffffffffffff1673ffffffffffffffffffffffffffffffffffffffff16815260200190815260200160002060009054906101000a900460ff16151514806101f75750600160009054906101000a900473ffffffffffffffffffffffffffffffffffffffff1673ffffffffffffffffffffffffffffffffffffffff168173ffffffffffffffffffffffffffffffffffffffff16145b610236576040517f08c379a000000000000000000000000000000000000000000000000000000000815260040161022d90610fdc565b60405180910390fd5b61023e610890565b60608682600001819052508582602001819052508482604001819052508382606001819052506001826080019015159081151581525050808260a001819052507feadfc512cc89394176d0eafcb13efc938513b64e3f4503c4038ff53feb3d9374826060015142846040516102b593929190611290565b60405180910390a150505050505050565b6102ce610746565b6102d860006107c4565b565b60026020528060005260406000206000915054906101000a900460ff1681565b60008060009054906101000a900473ffffffffffffffffffffffffffffffffffffffff16905090565b3360011515600260008373ffffffffffffffffffffffffffffffffffffffff1673ffffffffffffffffffffffffffffffffffffffff16815260200190815260200160002060009054906101000a900460ff16151514806103d05750600160009054906101000a900473ffffffffffffffffffffffffffffffffffffffff1673ffffffffffffffffffffffffffffffffffffffff168173ffffffffffffffffffffffffffffffffffffffff16145b61040f576040517f08c379a000000000000000000000000000000000000000000000000000000000815260040161040690610fdc565b60405180910390fd5b600082518560a00151516104239190611304565b905060008167ffffffffffffffff81111561044157610440610911565b5b60405190808252806020026020018201604052801561047a57816020015b6104676108c8565b81526020019060019003908161045f5790505b50905060005b8660a00151518110156105175760405180604001604052808860a0015183815181106104af576104ae61135a565b5b60200260200101516000015181526020018860a0015183815181106104d7576104d661135a565b5b6020026020010151602001518152508282815181106104f9576104f861135a565b5b6020026020010181905250808061050f90611389565b915050610480565b506000808760a001515190505b838110156105c2576040518060400160405280878460ff168151811061054d5761054c61135a565b5b6020026020010151600001518152602001878460ff16815181106105745761057361135a565b5b6020026020010151602001518152508382815181106105965761059561135a565b5b602002602001018190525081806105ac906113df565b92505080806105ba90611389565b915050610524565b5060009050818760a00181905250858760800190151590811515815250507f2a51e28c3bd0b7d511eac7fc1ed7f814d4523cf4882aa87356d3f329f28d671c8760600151428960405161061793929190611290565b60405180910390a150505050505050565b610630610746565b600073ffffffffffffffffffffffffffffffffffffffff168173ffffffffffffffffffffffffffffffffffffffff1614156106a0576040517f08c379a00000000000000000000000000000000000000000000000000000000081526004016106979061147b565b60405180910390fd5b6106a9816107c4565b50565b6106b4610746565b6001600260008373ffffffffffffffffffffffffffffffffffffffff1673ffffffffffffffffffffffffffffffffffffffff16815260200190815260200160002060006101000a81548160ff0219169083151502179055507f0a626adc02f3adf2594187c40cbf44400e95d1ae40524fb403d49b6c8634f1f28160405161073b91906114e7565b60405180910390a150565b61074e610888565b73ffffffffffffffffffffffffffffffffffffffff1661076c6102fa565b73ffffffffffffffffffffffffffffffffffffffff16146107c2576040517f08c379a00000000000000000000000000000000000000000000000000000000081526004016107b990611561565b60405180910390fd5b565b60008060009054906101000a900473ffffffffffffffffffffffffffffffffffffffff169050816000806101000a81548173ffffffffffffffffffffffffffffffffffffffff021916908373ffffffffffffffffffffffffffffffffffffffff1602179055508173ffffffffffffffffffffffffffffffffffffffff168173ffffffffffffffffffffffffffffffffffffffff167f8be0079c531659141344cd1fd0a4f28419497f9722a3daafe3b4186f6b6457e060405160405180910390a35050565b600033905090565b6040518060c0016040528060608152602001606081526020016060815260200160608152602001600015158152602001606081525090565b604051806040016040528060608152602001606081525090565b6000604051905090565b600080fd5b600080fd5b600080fd5b600080fd5b6000601f19601f8301169050919050565b7f4e487b7100000000000000000000000000000000000000000000000000000000600052604160045260246000fd5b61094982610900565b810181811067ffffffffffffffff8211171561096857610967610911565b5b80604052505050565b600061097b6108e2565b90506109878282610940565b919050565b600067ffffffffffffffff8211156109a7576109a6610911565b5b6109b082610900565b9050602081019050919050565b82818337600083830152505050565b60006109df6109da8461098c565b610971565b9050828152602081018484840111156109fb576109fa6108fb565b5b610a068482856109bd565b509392505050565b600082601f830112610a2357610a226108f6565b5b8135610a338482602086016109cc565b91505092915050565b60008060008060808587031215610a5657610a556108ec565b5b600085013567ffffffffffffffff811115610a7457610a736108f1565b5b610a8087828801610a0e565b945050602085013567ffffffffffffffff811115610aa157610aa06108f1565b5b610aad87828801610a0e565b935050604085013567ffffffffffffffff811115610ace57610acd6108f1565b5b610ada87828801610a0e565b925050606085013567ffffffffffffffff811115610afb57610afa6108f1565b5b610b0787828801610a0e565b91505092959194509250565b600073ffffffffffffffffffffffffffffffffffffffff82169050919050565b6000610b3e82610b13565b9050919050565b610b4e81610b33565b8114610b5957600080fd5b50565b600081359050610b6b81610b45565b92915050565b600060208284031215610b8757610b866108ec565b5b6000610b9584828501610b5c565b91505092915050565b60008115159050919050565b610bb381610b9e565b82525050565b6000602082019050610bce6000830184610baa565b92915050565b610bdd81610b33565b82525050565b6000602082019050610bf86000830184610bd4565b92915050565b600080fd5b600080fd5b610c1181610b9e565b8114610c1c57600080fd5b50565b600081359050610c2e81610c08565b92915050565b600067ffffffffffffffff821115610c4f57610c4e610911565b5b602082029050602081019050919050565b600080fd5b600060408284031215610c7b57610c7a610bfe565b5b610c856040610971565b9050600082013567ffffffffffffffff811115610ca557610ca4610c03565b5b610cb184828501610a0e565b600083015250602082013567ffffffffffffffff811115610cd557610cd4610c03565b5b610ce184828501610a0e565b60208301525092915050565b6000610d00610cfb84610c34565b610971565b90508083825260208201905060208402830185811115610d2357610d22610c60565b5b835b81811015610d6a57803567ffffffffffffffff811115610d4857610d476108f6565b5b808601610d558982610c65565b85526020850194505050602081019050610d25565b5050509392505050565b600082601f830112610d8957610d886108f6565b5b8135610d99848260208601610ced565b91505092915050565b600060c08284031215610db857610db7610bfe565b5b610dc260c0610971565b9050600082013567ffffffffffffffff811115610de257610de1610c03565b5b610dee84828501610a0e565b600083015250602082013567ffffffffffffffff811115610e1257610e11610c03565b5b610e1e84828501610a0e565b602083015250604082013567ffffffffffffffff811115610e4257610e41610c03565b5b610e4e84828501610a0e565b604083015250606082013567ffffffffffffffff811115610e7257610e71610c03565b5b610e7e84828501610a0e565b6060830152506080610e9284828501610c1f565b60808301525060a082013567ffffffffffffffff811115610eb657610eb5610c03565b5b610ec284828501610d74565b60a08301525092915050565b600080600060608486031215610ee757610ee66108ec565b5b600084013567ffffffffffffffff811115610f0557610f046108f1565b5b610f1186828701610da2565b9350506020610f2286828701610c1f565b925050604084013567ffffffffffffffff811115610f4357610f426108f1565b5b610f4f86828701610d74565b9150509250925092565b600082825260208201905092915050565b7f4e6f207469656e6573207065726d69736f732064652061646d696e697374726160008201527f646f720000000000000000000000000000000000000000000000000000000000602082015250565b6000610fc6602383610f59565b9150610fd182610f6a565b604082019050919050565b60006020820190508181036000830152610ff581610fb9565b9050919050565b600081519050919050565b60005b8381101561102557808201518184015260208101905061100a565b83811115611034576000848401525b50505050565b600061104582610ffc565b61104f8185610f59565b935061105f818560208601611007565b61106881610900565b840191505092915050565b6000819050919050565b61108681611073565b82525050565b600082825260208201905092915050565b60006110a882610ffc565b6110b2818561108c565b93506110c2818560208601611007565b6110cb81610900565b840191505092915050565b6110df81610b9e565b82525050565b600081519050919050565b600082825260208201905092915050565b6000819050602082019050919050565b6000604083016000830151848203600086015261112e828261109d565b91505060208301518482036020860152611148828261109d565b9150508091505092915050565b60006111618383611111565b905092915050565b6000602082019050919050565b6000611181826110e5565b61118b81856110f0565b93508360208202850161119d85611101565b8060005b858110156111d957848403895281516111ba8582611155565b94506111c583611169565b925060208a019950506001810190506111a1565b50829750879550505050505092915050565b600060c0830160008301518482036000860152611208828261109d565b91505060208301518482036020860152611222828261109d565b9150506040830151848203604086015261123c828261109d565b91505060608301518482036060860152611256828261109d565b915050608083015161126b60808601826110d6565b5060a083015184820360a08601526112838282611176565b9150508091505092915050565b600060608201905081810360008301526112aa818661103a565b90506112b9602083018561107d565b81810360408301526112cb81846111eb565b9050949350505050565b7f4e487b7100000000000000000000000000000000000000000000000000000000600052601160045260246000fd5b600061130f82611073565b915061131a83611073565b9250827fffffffffffffffffffffffffffffffffffffffffffffffffffffffffffffffff0382111561134f5761134e6112d5565b5b828201905092915050565b7f4e487b7100000000000000000000000000000000000000000000000000000000600052603260045260246000fd5b600061139482611073565b91507fffffffffffffffffffffffffffffffffffffffffffffffffffffffffffffffff8214156113c7576113c66112d5565b5b600182019050919050565b600060ff82169050919050565b60006113ea826113d2565b915060ff8214156113fe576113fd6112d5565b5b600182019050919050565b7f4f776e61626c653a206e6577206f776e657220697320746865207a65726f206160008201527f6464726573730000000000000000000000000000000000000000000000000000602082015250565b6000611465602683610f59565b915061147082611409565b604082019050919050565b6000602082019050818103600083015261149481611458565b9050919050565b7f4e7565766f20706572736f6e616c20616772656761646f3a2000000000000000600082015250565b60006114d1601983610f59565b91506114dc8261149b565b602082019050919050565b60006040820190508181036000830152611500816114c4565b905061150f6020830184610bd4565b92915050565b7f4f776e61626c653a2063616c6c6572206973206e6f7420746865206f776e6572600082015250565b600061154b602083610f59565b915061155682611515565b602082019050919050565b6000602082019050818103600083015261157a8161153e565b905091905056fea264697066735822122011cabf21ab6975745c6f11c4866a6bd27650c0a6629c0f4fda48f521c5f9adb164736f6c63430008090033",
  "linkReferences": {},
  "deployedLinkReferences": {}
}