{
  "_format": "hh-sol-artifact-1",
  "contractName": "RegistroVehicular",
  "sourceName": "src/Backend/contracts/RegistroVehicular.sol",
  "abi": [
    {
      "inputs": [],
      "stateMutability": "nonpayable",
      "type": "constructor"
    },
    {
      "anonymous": false,
      "inputs": [
        {
          "indexed": false,
          "internalType": "string",
          "name": "matricula",
          "type": "string"
        },
        {
          "components": [
            {
              "internalType": "string",
              "name": "nombre",
              "type": "string"
            },
            {
              "internalType": "string",
              "name": "emision",
              "type": "string"
            },
            {
              "internalType": "string",
              "name": "modeloVehiculo",
              "type": "string"
            },
            {
              "internalType": "string",
              "name": "matricula",
              "type": "string"
            },
            {
              "internalType": "bool",
              "name": "vigencia",
              "type": "bool"
            },
            {
              "internalType": "string",
              "name": "imageHash",
              "type": "string"
            },
            {
              "components": [
                {
                  "internalType": "string",
                  "name": "nombre",
                  "type": "string"
                },
                {
                  "internalType": "string",
                  "name": "fecha",
                  "type": "string"
                }
              ],
              "internalType": "struct RegistroVehicular.Infracciones[]",
              "name": "infracciones",
              "type": "tuple[]"
            }
          ],
          "indexed": false,
          "internalType": "struct RegistroVehicular.InfoMatricula",
          "name": "info",
          "type": "tuple"
        }
      ],
      "name": "NewMatricula",
      "type": "event"
    },
    {
      "anonymous": false,
      "inputs": [
        {
          "indexed": true,
          "internalType": "address",
          "name": "previousOwner",
          "type": "address"
        },
        {
          "indexed": true,
          "internalType": "address",
          "name": "newOwner",
          "type": "address"
        }
      ],
      "name": "OwnershipTransferred",
      "type": "event"
    },
    {
      "anonymous": false,
      "inputs": [
        {
          "indexed": false,
          "internalType": "string",
          "name": "message",
          "type": "string"
        },
        {
          "indexed": false,
          "internalType": "address",
          "name": "newPersonal",
          "type": "address"
        }
      ],
      "name": "PersonalAgregado",
      "type": "event"
    },
    {
      "anonymous": false,
      "inputs": [
        {
          "indexed": false,
          "internalType": "string",
          "name": "matricula",
          "type": "string"
        },
        {
          "components": [
            {
              "internalType": "string",
              "name": "nombre",
              "type": "string"
            },
            {
              "internalType": "string",
              "name": "emision",
              "type": "string"
            },
            {
              "internalType": "string",
              "name": "modeloVehiculo",
              "type": "string"
            },
            {
              "internalType": "string",
              "name": "matricula",
              "type": "string"
            },
            {
              "internalType": "bool",
              "name": "vigencia",
              "type": "bool"
            },
            {
              "internalType": "string",
              "name": "imageHash",
              "type": "string"
            },
            {
              "components": [
                {
                  "internalType": "string",
                  "name": "nombre",
                  "type": "string"
                },
                {
                  "internalType": "string",
                  "name": "fecha",
                  "type": "string"
                }
              ],
              "internalType": "struct RegistroVehicular.Infracciones[]",
              "name": "infracciones",
              "type": "tuple[]"
            }
          ],
          "indexed": false,
          "internalType": "struct RegistroVehicular.InfoMatricula",
          "name": "info",
          "type": "tuple"
        }
      ],
      "name": "UpdateMatricula",
      "type": "event"
    },
    {
      "inputs": [
        {
          "internalType": "string",
          "name": "_nombre",
          "type": "string"
        },
        {
          "internalType": "string",
          "name": "_emision",
          "type": "string"
        },
        {
          "internalType": "string",
          "name": "_modeloVehiculo",
          "type": "string"
        },
        {
          "internalType": "string",
          "name": "_matricula",
          "type": "string"
        },
        {
          "internalType": "string",
          "name": "_imageHash",
          "type": "string"
        }
      ],
      "name": "addVehiculo",
      "outputs": [],
      "stateMutability": "nonpayable",
      "type": "function"
    },
    {
      "inputs": [
        {
          "internalType": "address",
          "name": "newPersonal",
          "type": "address"
        }
      ],
      "name": "agregarPersonal",
      "outputs": [],
      "stateMutability": "nonpayable",
      "type": "function"
    },
    {
      "inputs": [
        {
          "internalType": "address",
          "name": "",
          "type": "address"
        }
      ],
      "name": "autorizados",
      "outputs": [
        {
          "internalType": "bool",
          "name": "",
          "type": "bool"
        }
      ],
      "stateMutability": "view",
      "type": "function"
    },
    {
      "inputs": [
        {
          "components": [
            {
              "internalType": "string",
              "name": "nombre",
              "type": "string"
            },
            {
              "internalType": "string",
              "name": "emision",
              "type": "string"
            },
            {
              "internalType": "string",
              "name": "modeloVehiculo",
              "type": "string"
            },
            {
              "internalType": "string",
              "name": "matricula",
              "type": "string"
            },
            {
              "internalType": "bool",
              "name": "vigencia",
              "type": "bool"
            },
            {
              "internalType": "string",
              "name": "imageHash",
              "type": "string"
            },
            {
              "components": [
                {
                  "internalType": "string",
                  "name": "nombre",
                  "type": "string"
                },
                {
                  "internalType": "string",
                  "name": "fecha",
                  "type": "string"
                }
              ],
              "internalType": "struct RegistroVehicular.Infracciones[]",
              "name": "infracciones",
              "type": "tuple[]"
            }
          ],
          "internalType": "struct RegistroVehicular.InfoMatricula",
          "name": "_infoMatricula",
          "type": "tuple"
        },
        {
          "internalType": "bool",
          "name": "_vigencia",
          "type": "bool"
        },
        {
          "components": [
            {
              "internalType": "string",
              "name": "nombre",
              "type": "string"
            },
            {
              "internalType": "string",
              "name": "fecha",
              "type": "string"
            }
          ],
          "internalType": "struct RegistroVehicular.Infracciones[]",
          "name": "_infracciones",
          "type": "tuple[]"
        }
      ],
      "name": "editInfo",
      "outputs": [],
      "stateMutability": "nonpayable",
      "type": "function"
    },
    {
      "inputs": [],
      "name": "owner",
      "outputs": [
        {
          "internalType": "address",
          "name": "",
          "type": "address"
        }
      ],
      "stateMutability": "view",
      "type": "function"
    },
    {
      "inputs": [],
      "name": "renounceOwnership",
      "outputs": [],
      "stateMutability": "nonpayable",
      "type": "function"
    },
    {
      "inputs": [
        {
          "internalType": "address",
          "name": "newOwner",
          "type": "address"
        }
      ],
      "name": "transferOwnership",
      "outputs": [],
      "stateMutability": "nonpayable",
      "type": "function"
    }
  ],
  "bytecode": "0x608060405234801561001057600080fd5b5061002d61002261008060201b60201c565b61008860201b60201c565b61003b61014c60201b60201c565b600160006101000a81548173ffffffffffffffffffffffffffffffffffffffff021916908373ffffffffffffffffffffffffffffffffffffffff160217905550610175565b600033905090565b60008060009054906101000a900473ffffffffffffffffffffffffffffffffffffffff169050816000806101000a81548173ffffffffffffffffffffffffffffffffffffffff021916908373ffffffffffffffffffffffffffffffffffffffff1602179055508173ffffffffffffffffffffffffffffffffffffffff168173ffffffffffffffffffffffffffffffffffffffff167f8be0079c531659141344cd1fd0a4f28419497f9722a3daafe3b4186f6b6457e060405160405180910390a35050565b60008060009054906101000a900473ffffffffffffffffffffffffffffffffffffffff16905090565b611621806101846000396000f3fe608060405234801561001057600080fd5b506004361061007d5760003560e01c80638da5cb5b1161005b5780638da5cb5b146100d85780639e0e509f146100f6578063f2fde38b14610112578063f91b2fa41461012e5761007d565b806355e4993d14610082578063715018a61461009e5780638c14c670146100a8575b600080fd5b61009c60048036038101906100979190610d55565b61014a565b005b6100a661044d565b005b6100c260048036038101906100bd9190610e3e565b610461565b6040516100cf9190610e7a565b60405180910390f35b6100e0610481565b6040516100ed9190610ea4565b60405180910390f35b610110600480360381019061010b9190610ebf565b6104aa565b005b61012c60048036038101906101279190610e3e565b61062e565b005b61014860048036038101906101439190610e3e565b6106b2565b005b3360011515600260008373ffffffffffffffffffffffffffffffffffffffff1673ffffffffffffffffffffffffffffffffffffffff16815260200190815260200160002060009054906101000a900460ff16151514806101f75750600160009054906101000a900473ffffffffffffffffffffffffffffffffffffffff1673ffffffffffffffffffffffffffffffffffffffff168173ffffffffffffffffffffffffffffffffffffffff16145b610236576040517f08c379a000000000000000000000000000000000000000000000000000000000815260040161022d90611049565b60405180910390fd5b600082518560c001515161024a91906110a2565b905060008167ffffffffffffffff81111561026857610267610919565b5b6040519080825280602002602001820160405280156102a157816020015b61028e610896565b8152602001906001900390816102865790505b50905060005b8660c001515181101561033e5760405180604001604052808860c0015183815181106102d6576102d56110f8565b5b60200260200101516000015181526020018860c0015183815181106102fe576102fd6110f8565b5b6020026020010151602001518152508282815181106103205761031f6110f8565b5b6020026020010181905250808061033690611127565b9150506102a7565b506000808760c001515190505b838110156103e9576040518060400160405280878460ff1681518110610374576103736110f8565b5b6020026020010151600001518152602001878460ff168151811061039b5761039a6110f8565b5b6020026020010151602001518152508382815181106103bd576103bc6110f8565b5b602002602001018190525081806103d39061117d565b92505080806103e190611127565b91505061034b565b5060009050818760c00181905250858760800190151590811515815250507f875f7a787eb4ea8ab20d84d0ed64965785f02689088c3f021af97ba1189e9d4f87606001518860405161043c92919061143c565b60405180910390a150505050505050565b61045561074c565b61045f60006107ca565b565b60026020528060005260406000206000915054906101000a900460ff1681565b60008060009054906101000a900473ffffffffffffffffffffffffffffffffffffffff16905090565b3360011515600260008373ffffffffffffffffffffffffffffffffffffffff1673ffffffffffffffffffffffffffffffffffffffff16815260200190815260200160002060009054906101000a900460ff16151514806105575750600160009054906101000a900473ffffffffffffffffffffffffffffffffffffffff1673ffffffffffffffffffffffffffffffffffffffff168173ffffffffffffffffffffffffffffffffffffffff16145b610596576040517f08c379a000000000000000000000000000000000000000000000000000000000815260040161058d90611049565b60405180910390fd5b61059e6108b0565b60608782600001819052508682602001819052508582604001819052508482606001819052506001826080019015159081151581525050838260a00181905250808260c001819052507fb034fdd6dca495e12551e3d87d0f6a94e5c59ebe0565dbdedeeca9d7a41fda9582606001518360405161061c92919061143c565b60405180910390a15050505050505050565b61063661074c565b600073ffffffffffffffffffffffffffffffffffffffff168173ffffffffffffffffffffffffffffffffffffffff1614156106a6576040517f08c379a000000000000000000000000000000000000000000000000000000000815260040161069d906114e5565b60405180910390fd5b6106af816107ca565b50565b6106ba61074c565b6001600260008373ffffffffffffffffffffffffffffffffffffffff1673ffffffffffffffffffffffffffffffffffffffff16815260200190815260200160002060006101000a81548160ff0219169083151502179055507f0a626adc02f3adf2594187c40cbf44400e95d1ae40524fb403d49b6c8634f1f2816040516107419190611551565b60405180910390a150565b61075461088e565b73ffffffffffffffffffffffffffffffffffffffff16610772610481565b73ffffffffffffffffffffffffffffffffffffffff16146107c8576040517f08c379a00000000000000000000000000000000000000000000000000000000081526004016107bf906115cb565b60405180910390fd5b565b60008060009054906101000a900473ffffffffffffffffffffffffffffffffffffffff169050816000806101000a81548173ffffffffffffffffffffffffffffffffffffffff021916908373ffffffffffffffffffffffffffffffffffffffff1602179055508173ffffffffffffffffffffffffffffffffffffffff168173ffffffffffffffffffffffffffffffffffffffff167f8be0079c531659141344cd1fd0a4f28419497f9722a3daafe3b4186f6b6457e060405160405180910390a35050565b600033905090565b604051806040016040528060608152602001606081525090565b6040518060e001604052806060815260200160608152602001606081526020016060815260200160001515815260200160608152602001606081525090565b6000604051905090565b600080fd5b600080fd5b600080fd5b6000601f19601f8301169050919050565b7f4e487b7100000000000000000000000000000000000000000000000000000000600052604160045260246000fd5b61095182610908565b810181811067ffffffffffffffff821117156109705761096f610919565b5b80604052505050565b60006109836108ef565b905061098f8282610948565b919050565b600080fd5b600080fd5b600080fd5b600067ffffffffffffffff8211156109be576109bd610919565b5b6109c782610908565b9050602081019050919050565b82818337600083830152505050565b60006109f66109f1846109a3565b610979565b905082815260208101848484011115610a1257610a1161099e565b5b610a1d8482856109d4565b509392505050565b600082601f830112610a3a57610a39610999565b5b8135610a4a8482602086016109e3565b91505092915050565b60008115159050919050565b610a6881610a53565b8114610a7357600080fd5b50565b600081359050610a8581610a5f565b92915050565b600067ffffffffffffffff821115610aa657610aa5610919565b5b602082029050602081019050919050565b600080fd5b600060408284031215610ad257610ad1610903565b5b610adc6040610979565b9050600082013567ffffffffffffffff811115610afc57610afb610994565b5b610b0884828501610a25565b600083015250602082013567ffffffffffffffff811115610b2c57610b2b610994565b5b610b3884828501610a25565b60208301525092915050565b6000610b57610b5284610a8b565b610979565b90508083825260208201905060208402830185811115610b7a57610b79610ab7565b5b835b81811015610bc157803567ffffffffffffffff811115610b9f57610b9e610999565b5b808601610bac8982610abc565b85526020850194505050602081019050610b7c565b5050509392505050565b600082601f830112610be057610bdf610999565b5b8135610bf0848260208601610b44565b91505092915050565b600060e08284031215610c0f57610c0e610903565b5b610c1960e0610979565b9050600082013567ffffffffffffffff811115610c3957610c38610994565b5b610c4584828501610a25565b600083015250602082013567ffffffffffffffff811115610c6957610c68610994565b5b610c7584828501610a25565b602083015250604082013567ffffffffffffffff811115610c9957610c98610994565b5b610ca584828501610a25565b604083015250606082013567ffffffffffffffff811115610cc957610cc8610994565b5b610cd584828501610a25565b6060830152506080610ce984828501610a76565b60808301525060a082013567ffffffffffffffff811115610d0d57610d0c610994565b5b610d1984828501610a25565b60a08301525060c082013567ffffffffffffffff811115610d3d57610d3c610994565b5b610d4984828501610bcb565b60c08301525092915050565b600080600060608486031215610d6e57610d6d6108f9565b5b600084013567ffffffffffffffff811115610d8c57610d8b6108fe565b5b610d9886828701610bf9565b9350506020610da986828701610a76565b925050604084013567ffffffffffffffff811115610dca57610dc96108fe565b5b610dd686828701610bcb565b9150509250925092565b600073ffffffffffffffffffffffffffffffffffffffff82169050919050565b6000610e0b82610de0565b9050919050565b610e1b81610e00565b8114610e2657600080fd5b50565b600081359050610e3881610e12565b92915050565b600060208284031215610e5457610e536108f9565b5b6000610e6284828501610e29565b91505092915050565b610e7481610a53565b82525050565b6000602082019050610e8f6000830184610e6b565b92915050565b610e9e81610e00565b82525050565b6000602082019050610eb96000830184610e95565b92915050565b600080600080600060a08688031215610edb57610eda6108f9565b5b600086013567ffffffffffffffff811115610ef957610ef86108fe565b5b610f0588828901610a25565b955050602086013567ffffffffffffffff811115610f2657610f256108fe565b5b610f3288828901610a25565b945050604086013567ffffffffffffffff811115610f5357610f526108fe565b5b610f5f88828901610a25565b935050606086013567ffffffffffffffff811115610f8057610f7f6108fe565b5b610f8c88828901610a25565b925050608086013567ffffffffffffffff811115610fad57610fac6108fe565b5b610fb988828901610a25565b9150509295509295909350565b600082825260208201905092915050565b7f4e6f207469656e6573207065726d69736f732064652061646d696e697374726160008201527f646f720000000000000000000000000000000000000000000000000000000000602082015250565b6000611033602383610fc6565b915061103e82610fd7565b604082019050919050565b6000602082019050818103600083015261106281611026565b9050919050565b6000819050919050565b7f4e487b7100000000000000000000000000000000000000000000000000000000600052601160045260246000fd5b60006110ad82611069565b91506110b883611069565b9250827fffffffffffffffffffffffffffffffffffffffffffffffffffffffffffffffff038211156110ed576110ec611073565b5b828201905092915050565b7f4e487b7100000000000000000000000000000000000000000000000000000000600052603260045260246000fd5b600061113282611069565b91507fffffffffffffffffffffffffffffffffffffffffffffffffffffffffffffffff82141561116557611164611073565b5b600182019050919050565b600060ff82169050919050565b600061118882611170565b915060ff82141561119c5761119b611073565b5b600182019050919050565b600081519050919050565b60005b838110156111d05780820151818401526020810190506111b5565b838111156111df576000848401525b50505050565b60006111f0826111a7565b6111fa8185610fc6565b935061120a8185602086016111b2565b61121381610908565b840191505092915050565b600082825260208201905092915050565b600061123a826111a7565b611244818561121e565b93506112548185602086016111b2565b61125d81610908565b840191505092915050565b61127181610a53565b82525050565b600081519050919050565b600082825260208201905092915050565b6000819050602082019050919050565b600060408301600083015184820360008601526112c0828261122f565b915050602083015184820360208601526112da828261122f565b9150508091505092915050565b60006112f383836112a3565b905092915050565b6000602082019050919050565b600061131382611277565b61131d8185611282565b93508360208202850161132f85611293565b8060005b8581101561136b578484038952815161134c85826112e7565b9450611357836112fb565b925060208a01995050600181019050611333565b50829750879550505050505092915050565b600060e083016000830151848203600086015261139a828261122f565b915050602083015184820360208601526113b4828261122f565b915050604083015184820360408601526113ce828261122f565b915050606083015184820360608601526113e8828261122f565b91505060808301516113fd6080860182611268565b5060a083015184820360a0860152611415828261122f565b91505060c083015184820360c086015261142f8282611308565b9150508091505092915050565b6000604082019050818103600083015261145681856111e5565b9050818103602083015261146a818461137d565b90509392505050565b7f4f776e61626c653a206e6577206f776e657220697320746865207a65726f206160008201527f6464726573730000000000000000000000000000000000000000000000000000602082015250565b60006114cf602683610fc6565b91506114da82611473565b604082019050919050565b600060208201905081810360008301526114fe816114c2565b9050919050565b7f4e7565766f20706572736f6e616c20616772656761646f3a2000000000000000600082015250565b600061153b601983610fc6565b915061154682611505565b602082019050919050565b6000604082019050818103600083015261156a8161152e565b90506115796020830184610e95565b92915050565b7f4f776e61626c653a2063616c6c6572206973206e6f7420746865206f776e6572600082015250565b60006115b5602083610fc6565b91506115c08261157f565b602082019050919050565b600060208201905081810360008301526115e4816115a8565b905091905056fea26469706673582212202c77a405d0e62c0f66eff0a1e78a49cd45cf52527a63e13e20ea0aabc36dd28864736f6c63430008090033",
  "linkReferences": {},
  "deployedLinkReferences": {}
}